{
  "contractName": "ERC20Data",
  "abi": [
    {
      "inputs": [
        {
          "internalType": "address",
          "name": "",
          "type": "address"
        }
      ],
      "name": "balanceOf",
      "outputs": [
        {
          "internalType": "uint256",
          "name": "",
          "type": "uint256"
        }
      ],
      "stateMutability": "view",
      "type": "function"
    },
    {
      "inputs": [
        {
          "internalType": "address",
          "name": "",
          "type": "address"
        }
      ],
      "name": "nonces",
      "outputs": [
        {
          "internalType": "uint256",
          "name": "",
          "type": "uint256"
        }
      ],
      "stateMutability": "view",
      "type": "function"
    },
    {
      "inputs": [],
      "name": "totalSupply",
      "outputs": [
        {
          "internalType": "uint256",
          "name": "",
          "type": "uint256"
        }
      ],
      "stateMutability": "view",
      "type": "function"
    }
  ],
  "bytecode": "0x608060405234801561001057600080fd5b50610180806100206000396000f3fe608060405234801561001057600080fd5b50600436106100415760003560e01c806318160ddd1461004657806370a08231146100645780637ecebe00146100bc575b600080fd5b61004e610114565b6040518082815260200191505060405180910390f35b6100a66004803603602081101561007a57600080fd5b81019080803573ffffffffffffffffffffffffffffffffffffffff16906020019092919050505061011a565b6040518082815260200191505060405180910390f35b6100fe600480360360208110156100d257600080fd5b81019080803573ffffffffffffffffffffffffffffffffffffffff169060200190929190505050610132565b6040518082815260200191505060405180910390f35b60005481565b60016020528060005260406000206000915090505481565b6003602052806000526040600020600091509050548156fea26469706673582212201b5731a76baf400bfd3e4ae893084dc28b5795cfe138712d46261b125e031f4064736f6c634300060c0033",
  "immutableReferences": {},
  "source": "// SPDX-License-Identifier: MIT\npragma solidity ^0.6.12;\n\n// a library for performing overflow-safe math, updated with awesomeness from of DappHub (https://github.com/dapphub/ds-math)\nlibrary BoringMath {\n    function add(uint a, uint b) internal pure returns (uint c) {require((c = a + b) >= b, \"BoringMath: Add Overflow\");}\n    function sub(uint a, uint b) internal pure returns (uint c) {require((c = a - b) <= a, \"BoringMath: Underflow\");}\n    function mul(uint a, uint b) internal pure returns (uint c) {require(b == 0 || (c = a * b)/b == a, \"BoringMath: Mul Overflow\");}\n}\n\n// Source: https://github.com/OpenZeppelin/openzeppelin-contracts/blob/master/contracts/access/Ownable.sol\n// Edited by BoringCrypto\n// - removed GSN context\n// - removed comments (we all know this contract)\n// - updated solidity version\n// - made _owner public and renamed to owner\n// - simplified code\n// TODO: Consider using the version that requires acceptance from new owner\n\ncontract Ownable {\n    address public owner;\n\n    event OwnershipTransferred(address indexed previousOwner, address indexed newOwner);\n\n    constructor () internal {\n        owner = msg.sender;\n        emit OwnershipTransferred(address(0), msg.sender);\n    }\n\n    function renounceOwnership() public virtual {\n        require(owner == msg.sender, \"Ownable: caller is not the owner\");\n        emit OwnershipTransferred(owner, address(0));\n        owner = address(0);\n    }\n\n    function transferOwnership(address newOwner) public virtual {\n        require(owner == msg.sender, \"Ownable: caller is not the owner\");\n        require(newOwner != address(0), \"Ownable: new owner is the zero address\");\n        emit OwnershipTransferred(owner, newOwner);\n        owner = newOwner;\n    }\n\n    modifier onlyOwner() {\n        require(owner == msg.sender, \"Ownable: caller is not the owner\");\n        _;\n    }\n}\n\ninterface IERC20 {\n    function totalSupply() external view returns (uint256);\n    function balanceOf(address account) external view returns (uint256);\n    function transfer(address recipient, uint256 amount) external returns (bool);\n    function transferFrom(address sender, address recipient, uint256 amount) external returns (bool);\n    event Transfer(address indexed from, address indexed to, uint256 value);\n}\n\n// Data part taken out for building of contracts that receive delegate calls\ncontract ERC20Data {\n    uint256 public totalSupply;\n    mapping(address => uint256) public balanceOf;\n    mapping(address => mapping (address => uint256)) allowance;\n    mapping(address => uint256) public nonces;\n}\n\ncontract ERC20 is ERC20Data {\n    event Transfer(address indexed _from, address indexed _to, uint256 _value);\n    event Approval(address indexed _owner, address indexed _spender, uint256 _value);\n\n    function transfer(address to, uint256 amount) public returns (bool success) {\n        if (balanceOf[msg.sender] >= amount && amount > 0 && balanceOf[to] + amount > balanceOf[to]) {\n            balanceOf[msg.sender] -= amount;\n            balanceOf[to] += amount;\n            emit Transfer(msg.sender, to, amount);\n            return true;\n        } else {\n            return false;\n        }\n    }\n\n    function transferFrom(address from, address to, uint256 amount) public returns (bool success) {\n        if (balanceOf[from] >= amount && allowance[from][msg.sender] >= amount && amount > 0 && balanceOf[to] + amount > balanceOf[to]) {\n            balanceOf[from] -= amount;\n            allowance[from][msg.sender] -= amount;\n            balanceOf[to] += amount;\n            emit Transfer(from, to, amount);\n            return true;\n        } else {\n            return false;\n        }\n    }\n\n    function approve(address spender, uint256 amount) public returns (bool success) {\n        allowance[msg.sender][spender] = amount;\n        emit Approval(msg.sender, spender, amount);\n        return true;\n    }\n\n    function DOMAIN_SEPARATOR() public view returns (bytes32){\n      uint256 chainId;\n      assembly {chainId := chainid()}\n      return keccak256(abi.encode(keccak256(\"EIP712Domain(uint256 chainId,address verifyingContract)\"), chainId, address(this)));\n    }\n\n    function permit(address owner, address spender, uint value, uint deadline, uint8 v, bytes32 r, bytes32 s) external {\n        require(block.timestamp < deadline, 'xSUSHI2: Expired');\n        bytes32 digest = keccak256(abi.encodePacked(\n            '\\x19\\x01', DOMAIN_SEPARATOR(),\n            keccak256(abi.encode(0x6e71edae12b1b97f4d1f60370fef10105fa2faae0126114a169c64845d6126c9, owner, spender, value, nonces[owner]++, deadline))\n        ));\n        address recoveredAddress = ecrecover(digest, v, r, s);\n        require(recoveredAddress == owner, 'xSUSHI2: Invalid Signature');\n        allowance[owner][spender] = value;\n        emit Approval(owner, spender, value);\n    }\n}\n\ncontract SushiBar is ERC20, Ownable {\n    using BoringMath for uint256;\n    \n    string public name = \"SushiBar V2\";\n    string public symbol = \"xSUSHI2\";\n    uint8 public decimals = 18;\n    IERC20 public sushi = IERC20(0x6B3595068778DD592e39A122f4f5a5cF09C90fE2);\n    IERC20 public dai = IERC20(0x6B175474E89094C44Da98b954EedeAC495271d0F);\n    \n    mapping(address => uint256) public startTime;\n    mapping(address => uint256) public claimed;\n    \n    mapping(address => uint256) public bonus;\n\n    event Enter(address indexed owner, address indexed to, uint256 amount);\n    event Leave(address indexed owner, address indexed to, uint256 amount);\n    event Claim(address indexed owner, address indexed to, uint256 amount);\n\n    function setBonus(address sender, uint256 newBonus) public onlyOwner {\n        require(newBonus <= 365 days, \"SushiBar: Bonus too large\");\n        bonus[sender] = newBonus;\n    }\n\n    function pending(address owner) public view returns(uint256) {\n        // Reward calculation:\n        //    amount     now - startTime   \n        // ----------- * --------------- * total extra SUSHI\n        // totalSupply       356 days\n        uint256 duration = block.timestamp.sub(startTime[owner]);\n        if (duration < 365 days) {\n            return balanceOf[owner].mul(duration).mul(dai.totalSupply()) / 365 days / totalSupply;\n        } else {\n            return balanceOf[owner].mul(dai.totalSupply()) / totalSupply;\n        }\n    }\n\n    function enter(uint256 amount, address to) public {\n        uint256 balanceCurrent = balanceOf[to];\n        if (balanceCurrent == 0) {\n            // If there is no balance, startTime is now\n            startTime[to] = block.timestamp.sub(bonus[msg.sender]);\n        } else {\n            // If there is already a balance:\n            // Increase startTime by: amount / (balance + amount) * (now - startTime)\n            // If you added 100 SUSHI 3 months ago and you add 200 SUSHI now, startTime should become 1 month ago\n            uint256 startTimeCurrent = startTime[to];\n            uint256 durationCurrent = block.timestamp.sub(startTimeCurrent);\n            uint256 bonusTime = bonus[msg.sender];\n            if (durationCurrent >= bonusTime) {\n                startTime[to] = startTimeCurrent.add(amount.mul(durationCurrent.sub(bonusTime) / (balanceCurrent.add(amount))));\n            } else {\n                startTime[to] = startTimeCurrent.sub(amount.mul(bonusTime.sub(durationCurrent) / (balanceCurrent.add(amount))));\n            }\n        }\n        \n        totalSupply = totalSupply.add(amount);\n        balanceOf[to] = balanceCurrent.add(amount);\n        emit Transfer(address(0), to, amount);\n\n        sushi.transferFrom(msg.sender, address(this), amount);\n        emit Enter(msg.sender, to, amount);\n    }\n    \n    function claim(address to) public {\n        uint256 claimedCurrent = claimed[msg.sender];\n        uint256 amount = pending(msg.sender).sub(claimedCurrent);\n        claimed[msg.sender] = claimedCurrent.add(amount);\n\n        dai.transfer(to, amount);\n        emit Claim(msg.sender, to, amount);\n    }\n\n    function leave(uint256 amount, address to) public {\n        claim(to);\n\n        balanceOf[msg.sender] = balanceOf[msg.sender].sub(amount);\n        totalSupply = totalSupply.sub(amount);\n        emit Transfer(to, address(0), amount);\n        \n        claimed[msg.sender] = pending(msg.sender);\n\n        sushi.transfer(to, amount);\n        emit Leave(msg.sender, to, amount);\n    }\n}\n",
  "sourcePath": "/Users/sbacha/sushiswap/contracts/SushiBarV2.sol",
  "compiler": {
    "name": "solc",
    "version": "0.6.12+commit.27d51765.Emscripten.clang"
  },
  "schemaVersion": "3.2.2",
  "updatedAt": "2021-01-11T09:22:40.963Z",
  "devdoc": {
    "kind": "dev",
    "methods": {},
    "version": 1
  },
  "userdoc": {
    "kind": "user",
    "methods": {},
    "version": 1
  }
}