{
  "contractName": "SushiRoll",
  "abi": [
    {
      "inputs": [
        {
          "internalType": "contract IUniswapV2Router01",
          "name": "_oldRouter",
          "type": "address"
        },
        {
          "internalType": "contract IUniswapV2Router01",
          "name": "_router",
          "type": "address"
        }
      ],
      "stateMutability": "nonpayable",
      "type": "constructor"
    },
    {
      "inputs": [],
      "name": "oldRouter",
      "outputs": [
        {
          "internalType": "contract IUniswapV2Router01",
          "name": "",
          "type": "address"
        }
      ],
      "stateMutability": "view",
      "type": "function"
    },
    {
      "inputs": [],
      "name": "router",
      "outputs": [
        {
          "internalType": "contract IUniswapV2Router01",
          "name": "",
          "type": "address"
        }
      ],
      "stateMutability": "view",
      "type": "function"
    },
    {
      "inputs": [
        {
          "internalType": "address",
          "name": "tokenA",
          "type": "address"
        },
        {
          "internalType": "address",
          "name": "tokenB",
          "type": "address"
        },
        {
          "internalType": "uint256",
          "name": "liquidity",
          "type": "uint256"
        },
        {
          "internalType": "uint256",
          "name": "amountAMin",
          "type": "uint256"
        },
        {
          "internalType": "uint256",
          "name": "amountBMin",
          "type": "uint256"
        },
        {
          "internalType": "uint256",
          "name": "deadline",
          "type": "uint256"
        },
        {
          "internalType": "uint8",
          "name": "v",
          "type": "uint8"
        },
        {
          "internalType": "bytes32",
          "name": "r",
          "type": "bytes32"
        },
        {
          "internalType": "bytes32",
          "name": "s",
          "type": "bytes32"
        }
      ],
      "name": "migrateWithPermit",
      "outputs": [],
      "stateMutability": "nonpayable",
      "type": "function"
    },
    {
      "inputs": [
        {
          "internalType": "address",
          "name": "tokenA",
          "type": "address"
        },
        {
          "internalType": "address",
          "name": "tokenB",
          "type": "address"
        },
        {
          "internalType": "uint256",
          "name": "liquidity",
          "type": "uint256"
        },
        {
          "internalType": "uint256",
          "name": "amountAMin",
          "type": "uint256"
        },
        {
          "internalType": "uint256",
          "name": "amountBMin",
          "type": "uint256"
        },
        {
          "internalType": "uint256",
          "name": "deadline",
          "type": "uint256"
        }
      ],
      "name": "migrate",
      "outputs": [],
      "stateMutability": "nonpayable",
      "type": "function"
    }
  ],
  "bytecode": "0x608060405234801561001057600080fd5b506040516118773803806118778339818101604052604081101561003357600080fd5b810190808051906020019092919080519060200190929190505050816000806101000a81548173ffffffffffffffffffffffffffffffffffffffff021916908373ffffffffffffffffffffffffffffffffffffffff16021790555080600160006101000a81548173ffffffffffffffffffffffffffffffffffffffff021916908373ffffffffffffffffffffffffffffffffffffffff1602179055505050611797806100e06000396000f3fe608060405234801561001057600080fd5b506004361061004c5760003560e01c8063396ac32814610051578063964c1f98146100ff578063aac55b3914610133578063f887ea40146101bf575b600080fd5b6100fd600480360361012081101561006857600080fd5b81019080803573ffffffffffffffffffffffffffffffffffffffff169060200190929190803573ffffffffffffffffffffffffffffffffffffffff16906020019092919080359060200190929190803590602001909291908035906020019092919080359060200190929190803560ff16906020019092919080359060200190929190803590602001909291905050506101f3565b005b6101076102e5565b604051808273ffffffffffffffffffffffffffffffffffffffff16815260200191505060405180910390f35b6101bd600480360360c081101561014957600080fd5b81019080803573ffffffffffffffffffffffffffffffffffffffff169060200190929190803573ffffffffffffffffffffffffffffffffffffffff16906020019092919080359060200190929190803590602001909291908035906020019092919080359060200190929190505050610309565b005b6101c761041f565b604051808273ffffffffffffffffffffffffffffffffffffffff16815260200191505060405180910390f35b60006101ff8a8a610445565b90508073ffffffffffffffffffffffffffffffffffffffff1663d505accf33308b898989896040518863ffffffff1660e01b8152600401808873ffffffffffffffffffffffffffffffffffffffff1681526020018773ffffffffffffffffffffffffffffffffffffffff1681526020018681526020018581526020018460ff168152602001838152602001828152602001975050505050505050600060405180830381600087803b1580156102b357600080fd5b505af11580156102c7573d6000803e3d6000fd5b505050506102d98a8a8a8a8a8a610309565b50505050505050505050565b60008054906101000a900473ffffffffffffffffffffffffffffffffffffffff1681565b4281101561037f576040517f08c379a00000000000000000000000000000000000000000000000000000000081526004018080602001828103825260128152602001807f5375736869537761703a2045585049524544000000000000000000000000000081525060200191505060405180910390fd5b6000806103908888888888886105fd565b915091506000806103a38a8a86866108dc565b91509150818411156103dd576103dc338386038c73ffffffffffffffffffffffffffffffffffffffff16610aa99092919063ffffffff16565b5b8083111561041357610412338285038b73ffffffffffffffffffffffffffffffffffffffff16610aa99092919063ffffffff16565b5b50505050505050505050565b600160009054906101000a900473ffffffffffffffffffffffffffffffffffffffff1681565b60008060006104548585610b4b565b9150915060008054906101000a900473ffffffffffffffffffffffffffffffffffffffff1673ffffffffffffffffffffffffffffffffffffffff1663c45a01556040518163ffffffff1660e01b815260040160206040518083038186803b1580156104be57600080fd5b505afa1580156104d2573d6000803e3d6000fd5b505050506040513d60208110156104e857600080fd5b81019080805190602001909291905050508282604051602001808373ffffffffffffffffffffffffffffffffffffffff1660601b81526014018273ffffffffffffffffffffffffffffffffffffffff1660601b8152601401925050506040516020818303038152906040528051906020012060405160200180807fff000000000000000000000000000000000000000000000000000000000000008152506001018373ffffffffffffffffffffffffffffffffffffffff1660601b8152601401828152602001807f96e8ac4277198ff8b6f785478aa9a39f403cb768dd02cbee326c3e7da348845f815250602001925050506040516020818303038152906040528051906020012060001c9250505092915050565b600080600061060c8989610445565b90508073ffffffffffffffffffffffffffffffffffffffff166323b872dd33838a6040518463ffffffff1660e01b8152600401808473ffffffffffffffffffffffffffffffffffffffff1681526020018373ffffffffffffffffffffffffffffffffffffffff1681526020018281526020019350505050602060405180830381600087803b15801561069d57600080fd5b505af11580156106b1573d6000803e3d6000fd5b505050506040513d60208110156106c757600080fd5b8101908080519060200190929190505050506000808273ffffffffffffffffffffffffffffffffffffffff166389afcb44306040518263ffffffff1660e01b8152600401808273ffffffffffffffffffffffffffffffffffffffff1681526020019150506040805180830381600087803b15801561074457600080fd5b505af1158015610758573d6000803e3d6000fd5b505050506040513d604081101561076e57600080fd5b8101908080519060200190929190805190602001909291905050509150915060006107998c8c610b4b565b5090508073ffffffffffffffffffffffffffffffffffffffff168c73ffffffffffffffffffffffffffffffffffffffff16146107d65781836107d9565b82825b809650819750505088861015610857576040517f08c379a00000000000000000000000000000000000000000000000000000000081526004018080602001828103825260208152602001807f5375736869526f6c6c3a20494e53554646494349454e545f415f414d4f554e5481525060200191505060405180910390fd5b878510156108cd576040517f08c379a00000000000000000000000000000000000000000000000000000000081526004018080602001828103825260208152602001807f5375736869526f6c6c3a20494e53554646494349454e545f425f414d4f554e5481525060200191505060405180910390fd5b50505050965096945050505050565b6000806108eb86868686610cc2565b809250819350505060006109a2600160009054906101000a900473ffffffffffffffffffffffffffffffffffffffff1673ffffffffffffffffffffffffffffffffffffffff1663c45a01556040518163ffffffff1660e01b815260040160206040518083038186803b15801561096057600080fd5b505afa158015610974573d6000803e3d6000fd5b505050506040513d602081101561098a57600080fd5b81019080805190602001909291905050508888610fb2565b90506109cf81848973ffffffffffffffffffffffffffffffffffffffff16610aa99092919063ffffffff16565b6109fa81838873ffffffffffffffffffffffffffffffffffffffff16610aa99092919063ffffffff16565b8073ffffffffffffffffffffffffffffffffffffffff16636a627842336040518263ffffffff1660e01b8152600401808273ffffffffffffffffffffffffffffffffffffffff168152602001915050602060405180830381600087803b158015610a6357600080fd5b505af1158015610a77573d6000803e3d6000fd5b505050506040513d6020811015610a8d57600080fd5b8101908080519060200190929190505050505094509492505050565b610b468363a9059cbb60e01b8484604051602401808373ffffffffffffffffffffffffffffffffffffffff16815260200182815260200192505050604051602081830303815290604052907bffffffffffffffffffffffffffffffffffffffffffffffffffffffff19166020820180517bffffffffffffffffffffffffffffffffffffffffffffffffffffffff83818316178352505050506110cb565b505050565b6000808273ffffffffffffffffffffffffffffffffffffffff168473ffffffffffffffffffffffffffffffffffffffff161415610bd3576040517f08c379a00000000000000000000000000000000000000000000000000000000081526004018080602001828103825260258152602001806116c66025913960400191505060405180910390fd5b8273ffffffffffffffffffffffffffffffffffffffff168473ffffffffffffffffffffffffffffffffffffffff1610610c0d578284610c10565b83835b8092508193505050600073ffffffffffffffffffffffffffffffffffffffff168273ffffffffffffffffffffffffffffffffffffffff161415610cbb576040517f08c379a000000000000000000000000000000000000000000000000000000000815260040180806020018281038252601e8152602001807f556e697377617056324c6962726172793a205a45524f5f41444452455353000081525060200191505060405180910390fd5b9250929050565b6000806000600160009054906101000a900473ffffffffffffffffffffffffffffffffffffffff1673ffffffffffffffffffffffffffffffffffffffff1663c45a01556040518163ffffffff1660e01b815260040160206040518083038186803b158015610d2f57600080fd5b505afa158015610d43573d6000803e3d6000fd5b505050506040513d6020811015610d5957600080fd5b81019080805190602001909291905050509050600073ffffffffffffffffffffffffffffffffffffffff168173ffffffffffffffffffffffffffffffffffffffff1663e6a4390589896040518363ffffffff1660e01b8152600401808373ffffffffffffffffffffffffffffffffffffffff1681526020018273ffffffffffffffffffffffffffffffffffffffff1681526020019250505060206040518083038186803b158015610e0957600080fd5b505afa158015610e1d573d6000803e3d6000fd5b505050506040513d6020811015610e3357600080fd5b810190808051906020019092919050505073ffffffffffffffffffffffffffffffffffffffff161415610f24578073ffffffffffffffffffffffffffffffffffffffff1663c9c6539688886040518363ffffffff1660e01b8152600401808373ffffffffffffffffffffffffffffffffffffffff1681526020018273ffffffffffffffffffffffffffffffffffffffff16815260200192505050602060405180830381600087803b158015610ee757600080fd5b505af1158015610efb573d6000803e3d6000fd5b505050506040513d6020811015610f1157600080fd5b8101908080519060200190929190505050505b600080610f32838a8a6111ba565b91509150600082148015610f465750600081145b15610f5a5786868095508196505050610fa6565b6000610f678884846112e3565b9050868111610f7f5787818096508197505050610fa4565b6000610f8c8884866112e3565b905088811115610f9857fe5b80888097508198505050505b505b50505094509492505050565b6000806000610fc18585610b4b565b91509150858282604051602001808373ffffffffffffffffffffffffffffffffffffffff1660601b81526014018273ffffffffffffffffffffffffffffffffffffffff1660601b8152601401925050506040516020818303038152906040528051906020012060405160200180807fff000000000000000000000000000000000000000000000000000000000000008152506001018373ffffffffffffffffffffffffffffffffffffffff1660601b8152601401828152602001807fe18a34eb0e04b04f7a0ac29a6e80748dca96319b42c54d679cb821dca90c6303815250602001925050506040516020818303038152906040528051906020012060001c925050509392505050565b606061112d826040518060400160405280602081526020017f5361666545524332303a206c6f772d6c6576656c2063616c6c206661696c65648152508573ffffffffffffffffffffffffffffffffffffffff166113c79092919063ffffffff16565b90506000815111156111b55780806020019051602081101561114e57600080fd5b81019080805190602001909291905050506111b4576040517f08c379a000000000000000000000000000000000000000000000000000000000815260040180806020018281038252602a815260200180611738602a913960400191505060405180910390fd5b5b505050565b60008060006111c98585610b4b565b5090506000806111da888888610fb2565b73ffffffffffffffffffffffffffffffffffffffff16630902f1ac6040518163ffffffff1660e01b815260040160606040518083038186803b15801561121f57600080fd5b505afa158015611233573d6000803e3d6000fd5b505050506040513d606081101561124957600080fd5b81019080805190602001909291908051906020019092919080519060200190929190505050506dffffffffffffffffffffffffffff1691506dffffffffffffffffffffffffffff1691508273ffffffffffffffffffffffffffffffffffffffff168773ffffffffffffffffffffffffffffffffffffffff16146112cd5780826112d0565b81815b8095508196505050505050935093915050565b600080841161133d576040517f08c379a00000000000000000000000000000000000000000000000000000000081526004018080602001828103825260258152602001806117136025913960400191505060405180910390fd5b60008311801561134d5750600082115b6113a2576040517f08c379a00000000000000000000000000000000000000000000000000000000081526004018080602001828103825260288152602001806116eb6028913960400191505060405180910390fd5b826113b683866113df90919063ffffffff16565b816113bd57fe5b0490509392505050565b60606113d68484600085611474565b90509392505050565b6000808214806113fc57508282838502925082816113f957fe5b04145b61146e576040517f08c379a00000000000000000000000000000000000000000000000000000000081526004018080602001828103825260148152602001807f64732d6d6174682d6d756c2d6f766572666c6f7700000000000000000000000081525060200191505060405180910390fd5b92915050565b606061147f8561167a565b6114f1576040517f08c379a000000000000000000000000000000000000000000000000000000000815260040180806020018281038252601d8152602001807f416464726573733a2063616c6c20746f206e6f6e2d636f6e747261637400000081525060200191505060405180910390fd5b600060608673ffffffffffffffffffffffffffffffffffffffff1685876040518082805190602001908083835b60208310611541578051825260208201915060208101905060208303925061151e565b6001836020036101000a03801982511681845116808217855250505050505090500191505060006040518083038185875af1925050503d80600081146115a3576040519150601f19603f3d011682016040523d82523d6000602084013e6115a8565b606091505b509150915081156115bd578092505050611672565b6000815111156115d05780518082602001fd5b836040517f08c379a00000000000000000000000000000000000000000000000000000000081526004018080602001828103825283818151815260200191508051906020019080838360005b8381101561163757808201518184015260208101905061161c565b50505050905090810190601f1680156116645780820380516001836020036101000a031916815260200191505b509250505060405180910390fd5b949350505050565b60008060007fc5d2460186f7233c927e7db2dcc703c0e500b653ca82273b7bfad8045d85a47060001b9050833f91508082141580156116bc57506000801b8214155b9250505091905056fe556e697377617056324c6962726172793a204944454e544943414c5f414444524553534553556e697377617056324c6962726172793a20494e53554646494349454e545f4c4951554944495459556e697377617056324c6962726172793a20494e53554646494349454e545f414d4f554e545361666545524332303a204552433230206f7065726174696f6e20646964206e6f742073756363656564a264697066735822122035e77dd8d95b56ae60a0a5b53321dc51b3c2173916d0c1cb076cfc3013631f8f64736f6c634300060c0033",
  "immutableReferences": {},
  "source": "pragma solidity 0.6.12;\n\nimport \"@openzeppelin/contracts/token/ERC20/IERC20.sol\";\nimport \"@openzeppelin/contracts/token/ERC20/SafeERC20.sol\";\nimport \"./uniswapv2/interfaces/IUniswapV2Pair.sol\";\nimport \"./uniswapv2/interfaces/IUniswapV2Router01.sol\";\nimport \"./uniswapv2/interfaces/IUniswapV2Factory.sol\";\nimport \"./uniswapv2/libraries/UniswapV2Library.sol\";\n\n// SushiRoll helps your migrate your existing Uniswap LP tokens to SushiSwap LP ones\ncontract SushiRoll {\n    using SafeERC20 for IERC20;\n\n    IUniswapV2Router01 public oldRouter;\n    IUniswapV2Router01 public router;\n\n    constructor(IUniswapV2Router01 _oldRouter, IUniswapV2Router01 _router) public {\n        oldRouter = _oldRouter;\n        router = _router;\n    }\n\n    function migrateWithPermit(\n        address tokenA,\n        address tokenB,\n        uint256 liquidity,\n        uint256 amountAMin,\n        uint256 amountBMin,\n        uint256 deadline,\n        uint8 v,\n        bytes32 r,\n        bytes32 s\n    ) public {\n        IUniswapV2Pair pair = IUniswapV2Pair(pairForOldRouter(tokenA, tokenB));\n        pair.permit(msg.sender, address(this), liquidity, deadline, v, r, s);\n\n        migrate(tokenA, tokenB, liquidity, amountAMin, amountBMin, deadline);\n    }\n\n    // msg.sender should have approved 'liquidity' amount of LP token of 'tokenA' and 'tokenB'\n    function migrate(\n        address tokenA,\n        address tokenB,\n        uint256 liquidity,\n        uint256 amountAMin,\n        uint256 amountBMin,\n        uint256 deadline\n    ) public {\n        require(deadline >= block.timestamp, 'SushiSwap: EXPIRED');\n\n        // Remove liquidity from the old router with permit\n        (uint256 amountA, uint256 amountB) = removeLiquidity(\n            tokenA,\n            tokenB,\n            liquidity,\n            amountAMin,\n            amountBMin,\n            deadline\n        );\n\n        // Add liquidity to the new router\n        (uint256 pooledAmountA, uint256 pooledAmountB) = addLiquidity(tokenA, tokenB, amountA, amountB);\n\n        // Send remaining tokens to msg.sender\n        if (amountA > pooledAmountA) {\n            IERC20(tokenA).safeTransfer(msg.sender, amountA - pooledAmountA);\n        }\n        if (amountB > pooledAmountB) {\n            IERC20(tokenB).safeTransfer(msg.sender, amountB - pooledAmountB);\n        }\n    }\n\n    function removeLiquidity(\n        address tokenA,\n        address tokenB,\n        uint256 liquidity,\n        uint256 amountAMin,\n        uint256 amountBMin,\n        uint256 deadline\n    ) internal returns (uint256 amountA, uint256 amountB) {\n        IUniswapV2Pair pair = IUniswapV2Pair(pairForOldRouter(tokenA, tokenB));\n        pair.transferFrom(msg.sender, address(pair), liquidity);\n        (uint256 amount0, uint256 amount1) = pair.burn(address(this));\n        (address token0,) = UniswapV2Library.sortTokens(tokenA, tokenB);\n        (amountA, amountB) = tokenA == token0 ? (amount0, amount1) : (amount1, amount0);\n        require(amountA >= amountAMin, 'SushiRoll: INSUFFICIENT_A_AMOUNT');\n        require(amountB >= amountBMin, 'SushiRoll: INSUFFICIENT_B_AMOUNT');\n    }\n\n    // calculates the CREATE2 address for a pair without making any external calls\n    function pairForOldRouter(address tokenA, address tokenB) internal view returns (address pair) {\n        (address token0, address token1) = UniswapV2Library.sortTokens(tokenA, tokenB);\n        pair = address(uint(keccak256(abi.encodePacked(\n                hex'ff',\n                oldRouter.factory(),\n                keccak256(abi.encodePacked(token0, token1)),\n                hex'96e8ac4277198ff8b6f785478aa9a39f403cb768dd02cbee326c3e7da348845f' // init code hash\n            ))));\n    }\n\n    function addLiquidity(\n        address tokenA,\n        address tokenB,\n        uint256 amountADesired,\n        uint256 amountBDesired\n    ) internal returns (uint amountA, uint amountB) {\n        (amountA, amountB) = _addLiquidity(tokenA, tokenB, amountADesired, amountBDesired);\n        address pair = UniswapV2Library.pairFor(router.factory(), tokenA, tokenB);\n        IERC20(tokenA).safeTransfer(pair, amountA);\n        IERC20(tokenB).safeTransfer(pair, amountB);\n        IUniswapV2Pair(pair).mint(msg.sender);\n    }\n\n    function _addLiquidity(\n        address tokenA,\n        address tokenB,\n        uint256 amountADesired,\n        uint256 amountBDesired\n    ) internal returns (uint256 amountA, uint256 amountB) {\n        // create the pair if it doesn't exist yet\n        IUniswapV2Factory factory = IUniswapV2Factory(router.factory());\n        if (factory.getPair(tokenA, tokenB) == address(0)) {\n            factory.createPair(tokenA, tokenB);\n        }\n        (uint256 reserveA, uint256 reserveB) = UniswapV2Library.getReserves(address(factory), tokenA, tokenB);\n        if (reserveA == 0 && reserveB == 0) {\n            (amountA, amountB) = (amountADesired, amountBDesired);\n        } else {\n            uint256 amountBOptimal = UniswapV2Library.quote(amountADesired, reserveA, reserveB);\n            if (amountBOptimal <= amountBDesired) {\n                (amountA, amountB) = (amountADesired, amountBOptimal);\n            } else {\n                uint256 amountAOptimal = UniswapV2Library.quote(amountBDesired, reserveB, reserveA);\n                assert(amountAOptimal <= amountADesired);\n                (amountA, amountB) = (amountAOptimal, amountBDesired);\n            }\n        }\n    }\n}\n",
  "sourcePath": "/Users/sbacha/sushiswap/contracts/SushiRoll.sol",
  "compiler": {
    "name": "solc",
    "version": "0.6.12+commit.27d51765.Emscripten.clang"
  },
  "schemaVersion": "3.2.2",
  "updatedAt": "2021-01-11T09:22:41.027Z",
  "devdoc": {
    "kind": "dev",
    "methods": {},
    "version": 1
  },
  "userdoc": {
    "kind": "user",
    "methods": {},
    "version": 1
  }
}